S016000053414D4432315F53445F426F6F742E737265639D
S113000050240020214400001D4400001D44000031
S113001000000000000000000000000000000000DC
S11300200000000000000000000000001D4400006B
S113003000000000000000001D4400001D440000FA
S11300401D4400001D4400001D440000D90C0000A4
S11300501D4400001D4400001D4400001D44000018
S11300601D440000AD1F0000BD1F0000CD1F000097
S1130070DD1F0000ED1F0000FD1F00001D440000F7
S11300801D4400001D4400001D4400001D440000E8
S11300901D44000000000000000000001D4400009A
S11300A01D4400001D4400001D4400001D440000C8
S11300B00000000010B5064C2378002B07D1054B37
S11300C0002B02D0044800E000BF0123237010BDC0
S11300D0940000200000000024660000084B10B5C6
S11300E0002B03D00749084800E000BF0748036815
S11300F0002B00D110BD064B002BFBD09847F9E72D
S1130100000000009800002024660000246600001F
S11301100000000070B50725891A0731CC172C4060
S11301206118C9104118481E00782A401041D61899
S11301300400082E0DDD881E00780135AD1AA84094
S11301400443102E05DD102003390978821A9140EA
S11301500C43012098400138204070BD10B5074B76
S1130160074819680078CB1CDB7F064C5A1E934164
S11301704A7CDBB20968A04710BDC046B400002029
S1130180BA0000204523000070B5FF26094D002168
S113019009480A4B9847041E01D1002407E0084B84
S11301A09847304203D0013D002DF0D1F5E72000FF
S11301B070BDC046410D03000D1B00005D2500000D
S11301C07125000010B5034B1878002801D1024BAB
S11301D0984710BDBA00002099230000F8B5050027
S11301E00420002D60D131490A7A0C005309D60944
S11301F058D12F48DB011B1801351F201F6A2B0023
S1130200024093408A7B3B400AD0AA4205D1294B45
S11302101B78002B01D0284B1E600423A37313E02A
S1130220042A19D1244C8D732068224A00280DD148
S1130230224B15709847FA21214B49019847FA231C
S11302409B0058436060256002202DE0FA20137063
S113025080001C4B9847F7E7012A12D1154A1278FF
S1130260002A05D0144A02201168C9031CD5136062
S11302700223A373144B0022236001236374E31C41
S1130280DA770320A37B83420ED000220F4B1A702F
S11302900F4B1C600F4B9847A07B023842424241EF
S11302A0D0B201E02B6AFFDEF8BDC046000000209A
S11302B000440041B200002010E000E0A941000029
S11302C0014900004D200000801A0600BA000020F9
S11302D0B40000205D01000073B501240B4D102211
S11302E02B680B4899890B4E090400942300B047EE
S11302F0002801D1002008E0286821001230064BB4
S113030098470028F6D0054B984776BDB4000020E6
S113031009110800F5230000F1250000592600000A
S1130320042210B5034B9A73034BFB321A70034B30
S1130330984710BD00000020BA0000203D220000B4
S1130340F0B5C74B89B09847061E012E00D026E1B0
S11303500025C44C2368D8731D749D81C24B9847F3
S1130360882029004001C14DA847002800D113E18D
S1130370D5277F003900BE48A847002809D0BD4BC7
S11303809847431C05D00005000DB84200D003E196
S113039000E000262368DB7BDB0700D5A6E02368AA
S11303A0DB7BDB0707D42368DA7B09231340012BAB
S11303B000D08AE082E0B04B9847002800D1EBE0FF
S11303C02668082335001235602280212800AB4FAF
S11303D0B8470723AA4A03409B009B58FA224006C9
S11303E092005343000FA74A800082588021534350
S11303F0280033607E220223B847002808D0162341
S1130400302280212800B84701304002706018E093
S11304100C233E2280212800B847032303902F2277
S113042080212800B847039B0230013383405022C7
S11304300393802104232800B847039F8740BF0A01
S11304407760B18990480904884B9847002800D107
S1130450A2E00125082200952B0000218B488C4E38
S1130460B047002800D197E0290006A8894B984797
S1130470002800D190E0884B9847061E00D18BE0FD
S113048004233822402106A87C4FB8471A23A842E7
S11304900ED000280BD0022809D12B002F22402196
S11304A006A8B8473023012802D0202300E01023F7
S11304B022681374002E00D075E76DE08021774820
S11304C089006A4B9847002866D02368DB7BDB07EA
S11304D003D5734B984700285ED0724B984700228F
S11304E023689A73704B9847012027E1701E864158
S11304F0B3076E4E039300216348A84700281BD01E
S113050003996B48A847002816D05A4FB8470123CF
S11305100100194003D0013E002EECD10CE06548E7
S1130520A847002808D0B84743002FD508212268DF
S1130530D37B0B43D37329E0022388202268002154
S1130540D3734001A847002826D0584E00215A48AA
S1130550A847002820D0474FB8470121014003D0C5
S1130560013E002EF2D117E05248A847002813D0CC
S1130570B847C023DB0518408023DB05984212D11D
S113058008212268D37B0B43D3730CE000214B4832
S1130590A847002800D002E7032623689E73424B35
S11305A098473000CAE000214448A8470028F3D007
S11305B0314B98470028EFD0256804232E001236CB
S11305C07A22802130002D4FB847013812230328A6
S11305D00AD804F08BF902040608142304E0222349
S11305E002E0302300E040232B74602208238021A2
S11305F0224F3000B847072342061840204B8000A2
S1130600C158FA239B004B43120F2D4992005258B4
S11306103000534380212B603E220C23B847294BE2
S11306200390984211D003232F2280213000B84731
S1130630039F023001378740042330005022802179
S11306400E4EB0478740BF0A6F602B7C3F2B3BD8D0
S1130650802112488900054B984700289CD038E730
S1130660DD010000B4000020C12300005D2500006E
S11306700855000071250000D90200001501000092
S1130680405E0000005E00003711000033110800D6
S1130690F5230000F1250000592600001011000088
S11306A0890100005D010000C5010000EF1B00008E
S11306B0291100003A050000011100003B1100005F
S11306C05C5E0000FF0F0000002180221C4D0091A1
S11306D0012392001B48A8473225002800D15BE77C
S11306E005A8194EB047002800D155E7013DADB229
S11306F0002DF5D120680C23144D12303E228021A8
S1130700A847134B322598420ED12E3D06A8B04778
S1130710002800D140E7013DADB2002DF6D1069B83
S113072022685B085360363506A8B047002800D11C
S113073032E70135ADB2802DF6D189E709B0F0BDBD
S1130740F5230000081108007D25000015010000B4
S1130750FF0F0000064B10B598470023984204D1C0
S1130760044B9847044B1B68DB7B180010BDC04644
S1130770DD010000C5010000B4000020064B10B5E7
S113078098470023984204D1044B9847044B1B68B4
S11307905B68180010BDC046DD010000C501000003
S11307A0B40000200020704737B5144B0D0014002E
S11307B09847002821D1124B9847002803D1114BA8
S11307C09847052019E0012C01D80F4800E00F4894
S11307D00F4B1B68DB7B1B0700D46D0201238022B7
S11307E000932900230092000A4DA8470028E6D070
S11307F00020094B1C80094B1C803EBDDD0100001C
S113080089010000C5010000111108001211100037
S1130810B4000020F5230000B8000020B000002040
S113082010B5074B0C009847064B002802D11880DE
S1130830053003E000201988091B198010BDC0464B
S1130840F1250000B800002010B5114B04009847B2
S1130850052300281AD00F4B002C02D000221A8046
S113086003E01A882300002A10D10B4B1B88012BAC
S113087003D10A4B9847002308E000210848094C9B
S1130880A047011EF5D10648A047F2E7180010BDA5
S113089059260000B8000020B0000020C501000067
S11308A00C3100005D25000037B5124B0D0014001B
S11308B0984700281DD1012C01D80F4800E00F48AB
S11308C00F4B1B68DB7B1B0700D46D0201238022C6
S11308D000932900230092000A4DA847002803D161
S11308E0094B9847052004E00020084B1C80084B66
S11308F01C803EBDDD010000189108001991100014
S1130900B4000020F5230000C5010000B800002059
S1130910B000002010B5074B0C009847064B002888
S113092002D11880053003E000201988091B1980C2
S113093010BDC0465D260000B800002010B50A4B6B
S113094004009847052300280CD0084B002C02D043
S113095000221A8003E01A882300002A02D1044BE3
S113096098470023180010BDD1260000B8000020CD
S1130970C501000070B50E4B0500984703230128FC
S113098014D0002807D0023B02280FD10022094BC3
S11309905A5503000AE0074B5C5D002C05D1064B59
S11309A0280098472300820700D10223180070BD55
S11309B041030000BB0000205507000010B50020D3
S11309C0014B984710BDC0467509000070B5054B32
S11309D00D0004009847400001382860024B2000B5
S11309E0984770BD7D0700007509000010B501002F
S11309F0014B0020984710BDCD09000010B5002020
S1130A00014B984710BDC046A507000010B50C4B1C
S1130A10140001229847002804D00238434243417D
S1130A2001330BE0074B01212000984701230028E4
S1130A3004D1054B9847431E9841C3B2180010BD1A
S1130A40A9070000210800004908000010B50A00A9
S1130A50024B01000020984710BDC0460D0A00005B
S1130A6010B50C4B140001229847002804D002381A
S1130A704342434101330BE0074B012120009847D7
S1130A800123002804D1054B9847431E9841C3B263
S1130A90180010BDA9080000150900003D09000058
S1130AA010B50A00024B01000020984710BDC04653
S1130AB0610A00000368987AC0097047082270B57B
S1130AC00500064B04681A602800054B9847002867
S1130AD0FAD1022223881343238070BD00E100E091
S1130AE0B50A0000082270B50500084B0468DA67EF
S1130AF02800074B98470028FAD1C1230222A3718A
S1130B00237223889343238070BDC04604E100E030
S1130B10B50A000070B5084B040005689847002327
S1130B20238263822000054B98470028FAD10122D2
S1130B302B8813432B8070BDE50A0000B50A000022
S1130B4010B5CB88C4881B1B9C064B799A050B797E
S1130B505B0413438A781203134302792343002A64
S1130B6005D1CA78002A02D0802252021343487861
S1130B700A7880011043184310BD30B5C3888C0E29
S1130B80E318D3800F238C0D1C4054711F244D0C8B
S1130B90254015710579080B002D02D0044094708E
S1130BA004E003409370CB03DB0FD3703F23880929
S1130BB0184019405070117030BD000070B5437971
S1130BC005000E000468002B0CD10D4B6380280037
S1130BD00C4B98470028FAD13200280021690A4BAF
S1130BE0984770BD63885B04F6D4C02362881B02F7
S1130BF0134363802800034B98470028FAD1EBE79E
S1130C000080FFFFB50A00007B0B0000F7B505006C
S1130C100E0014001720012A10D82B682800019315
S1130C20074B984707002800064B98470028FAD13D
S1130C30019BE4001C19A761337A2377FEBDC046EB
S1130C40410B0000B50A000037B5016020211400F3
S1130C501B4A0500936904200B439361022301A9F5
S1130C600B70184B98470420174B9847174B2800D4
S1130C70984723792B71E3786B71E388EB80144BED
S1130C801D6021792A682388002901D0082100E009
S1130C9048210B43A178002901D080210B43138004
S1130CA0E378002B04D080215388C9010B4353807F
S1130CB02100280008310022064B984737BDC04662
S1130CC000040040B942000031420000150B00004E
S1130CD0D40300200D0C000070B50D4B1B685A8A1C
S1130CE01C68198A0A40217AE0790140C80906D0B3
S1130CF0920701D5DB6898478023237207E001251A
S1130D00294204D02A4201D09B689847257270BDBD
S1130D10D4030020094B10B59847094B984700208D
S1130D20084B9847012805D10020074B9847022813
S1130D30FAD1F4E70028F2D110BDC0460D2000001E
S1130D40210300007509000041030000F0B50024F0
S1130D5089B0009201933F230026002725000690C6
S1130D6007910393039A154B012000219847320001
S1130D703B0092197B410492059316001F00069ACA
S1130D80079B02400B40134303D0012333431E004F
S1130D90059F019BBB4209D802D1009BB34205D8F1
S1130DA0009A019BB61A9F4104430D43039B5A1EAC
S1130DB00392D7D22000290009B0F0BDED4B00000A
S1130DC010B54908040000234020A1420BD3581C4D
S1130DD0091B80B28C4201D80300F8E74020FF2BA6
S1130DE001D80020138010BDF0B585B01E000AABF9
S1130DF00D00197803004B4303924027AB4237D8C8
S1130E00002E13D10200330008001B4C3100A04710
S1130E102A0001003300194C3000A04700220123AE
S1130E20121A8B41140C1B041C431EE00024012ED7
S1130E301BD10A00230021000F4EB04700900191FE
S1130E400B000200210028000C4CA0478023060060
S1130E509B0198420CD8009A019B690FE800A047B7
S1130E60F400041BE4B2640334430027039B1C8096
S1130E70380005B0F0BDC046054C00004D0D000023
S1130E8037B50D4B04001A781D00002A01D0002943
S1130E900CD001A91320094B0C7098471320084B60
S1130EA0984701236C702B70002004E05B780800E5
S1130EB0A34200D01D203EBDBD000020B942000069
S1130EC0314200003A4A030000B5080093422BD097
S1130ED006D8384A93420DD0374A934217D057E088
S1130EE0364A93423AD0364A934244D0354A9342E2
S1130EF04ED126E00023032957D803F0F7FC4B0218
S1130F000406314B51E0314B4FE0314B4DE00023AF
S1130F1003294AD803F0EAFC400204062D4B44E0BE
S1130F202D4B42E02D4B40E0002303293DD803F034
S1130F30DDFC350204062A4B37E02A4B35E02A4B08
S1130F4033E00023032930D803F0D0FC2A0204063E
S1130F50264B2AE0264B28E0264B26E000230329D3
S1130F6023D803F0C3FC1F020406234B1DE0234BCC
S1130F701BE0234B19E00023032916D803F0B6FC29
S1130F80140204061F4B10E01F4B0EE01F4B0CE035
S1130F9000230AE01E4B08E0032306E01D4B04E097
S1130FA01D4B02E01D4B00E01D4B180000BDC04668
S1130FB00010004200080042000C004200180042E9
S1130FC0001C004200140042030005000300060058
S1130FD0030007000300010003001E0003001F00BC
S1130FE00300090003000A0003000B0003001100C2
S1130FF0030012000300130003000D0003000E00A1
S113100003000F0003001700030018000300190079
S113101003000400030008000300100003000C0098
S11310200300160070B586B06946094B6A4670CB5A
S113103070C170CB70C1002399005158814201D115
S1131040D8B203E00133062BF6D1002006B070BD00
S11310509C5E000070B50E001400150000280ED12F
S1131060611B7118002D06DD064B013D1868064B07
S11310701B689847F4E7E043C017204001E00120D3
S1131080404270BDE0030020D8030020013870B551
S11310900E0002280DD80C008D18A01BAC420AD0FB
S11310A0054B21781868054B01341B6898470028C4
S11310B0F3DA0120404270BDE0030020DC0300208D
S11310C0A02330B587B001AA1B0113800023FA21A5
S11310D09370D37053729372D372164BC900040089
S11310E0D18004200121D3810623134D1171107284
S11310F01173517313742800104B11499847280039
S1131100104B9847012C01D9012010E020000E4D0E
S1131110A847032803D12000A8470328F4D00028B7
S1131120F2D10A4B20009847431E9841800007B033
S113113030BDC046DE070000E4030020490C000077
S113114000140040BD0A0000F52600002927000015
S1131150054B10B59847031E03D00323022800D083
S1131160023B180010BDC046F5260000F0B587B05C
S11311700293174B07000D0014009847061E01D177
S1131180012022E0134B05A938009847029A059BD9
S1131190724301337343121904209A4215D873021F
S11311A0039300230193019B029A93420CD22A00D9
S11311B02100094B38009847039BA419ED18002817
S11311C0DED1019B0133EDE7002007B0F0BDC0463E
S11311D021270000092700003D270000F0B587B053
S11311E00293174B07000D0014009847061E01D107
S11311F0012022E0134B05A938009847029A059B69
S1131200724301337343121904209A4215D87302AE
S1131210039300230193019B029A93420CD22A0068
S11312202100094B38009847039BA419ED180028A6
S1131230DED1019B0133EDE7002007B0F0BDC046CD
S113124021270000092700005927000037B504238F
S113125005001400032924D8080003F047FB1C04EC
S11312600D02012305E0104B01A928009847019BBA
S113127001332360002314E00C4B28009847431EDD
S1131280DBB2012B04D9FB2204380123104208D11C
S11312900023237005E0064B28009847031E00D066
S11312A0032318003EBDC046092700002127000083
S11312B0F526000007B50E4B0E48694698476B4665
S11312C058791B7940051B0418436B469B780A4ADE
S11312D0DB0218436B465B785B0118436B461B7853
S11312E05B0818436B46DB889B185B0618430EBDEE
S11312F0BD0B0000E403002044F8FFFF10B57F2875
S113130016D9002906D0FF2811D88038094B40008F
S1131310C05A0DE0074A4C00A45A8BB2844203D051
S113132001318029F7D10B008033D8B200E00020CE
S113133010BDC04674620000002310B5054C5A006D
S1131340115B002905D0814201D00133F7E7024B3C
S1131350D05A10BD94600000B45E000037B505009B
S11313601020314A314C9369034393612378DB099C
S113137058D1EB780730002B54D02A799A4251D8AF
S11313806A799A424ED80222237893432370E379F0
S11313905BB2002BFBDB6B78002B34D0AB7801A95C
S11313A00B700320224B9847224B032098472B783D
S11313B0002B02D00320204B9847EB782A79013B7D
S11313C00421002A07D022780A4322702A79013A9C
S11313D08A40134302E022788A432270E27952B2AF
S11313E0002AFBDB114ADBB253706B79002B0CD162
S11313F02B78002B0ED08023227813432370E379BB
S11314005BB2002BFBDB00200CE0E27952B2002A35
S113141003DAFAE723780222EFE7013B034ADBB25F
S11314209370E5E73EBDC046000400400010004054
S1131430B942000031420000D54200000268D3697D
S1131440002BFCD170470000F0B5070093B09D4B12
S1131450396008001400049198470122049B052672
S11314601B68134200D02AE1049B17361D6802232F
S11314701D4000D023E1811C1B3E8E40924A143053
S1131480136A0CA93343136223002D3302931B7890
S1131490C6B20B7030008D4B984730008C4B984788
S11314A0029B290018788B4B9847E37A08267B71B6
S11314B0631DDB7FBB71A31DDB7FFB71E37E3B728E
S11314C0237F7B723B68039318007E4B98470EABD7
S11314D01D80238A143002938023029ADB019A42EE
S11314E015D005D8802310269B019A420ED009E01E
S11314F0C023029ADB019A4207D0802303261B02F1
S11315009A4204D01026002501E00826012523680C
S11315100693E368079363690893237E0993E31DA5
S1131520DB7F0A93636805932300059A0833002A36
S113153011D0802205995205914224D1DB7F002BE2
S113154021D1654BC0B2256A98470EAA0100634BAE
S11315502800984714E0DB7F002B05D000962B0071
S11315600EAAA16A206A09E0236AC0B20B935A4BFF
S113157098472B0001000B9800960EAA584DA847D7
S1131580061E00D09BE0637E002B02D0A37E039A4C
S11315909373544E3800B0470EAB1B88039A069DD4
S11315A09381079B1D43089B1D43059B1D43029B81
S11315B01D43099B1B021D430A9B5B071D4323001C
S11315C00833DB7F0296002B01D104331D43667E72
S11315D0237F627F5B02B6021E431202631D164321
S11315E0DA7FA31D52041643DA7F33001204134337
S11315F0A67AE27A16431E432389FF2B04D0802265
S1131600520415431E4305E0E37E002B02D08023E1
S1131610DB041D4323002C331B78002B03D1324BF6
S11316209B789B0701D580231D433800029B984774
S1131630039B38005E60029B9847039B00261D6055
S113164080230AAA1373236B0EAD0E93636B567338
S11316506B60A36BD673AB60E36B34009673EB6083
S1131660A300E858E1B2002802D104981F4B984720
S1131670431C06D00AAB1873000CC0B20DA91C4B56
S113168098470134042CEBD13A0000233032FB8517
S1131690FB603B617B61BB61FB613B62BB627B6264
S11316A0BB85937013705370D3703868054B98479B
S11316B00400104B10499847104BA400E750300029
S11316C013B0F0BD2510000000040040B942000032
S11316D031420000810E000005430000C10D0000EE
S11316E0E90D00003D14000000200041C50E00007B
S11316F0BD4300004D1F0000A5170000FC0300209F
S113170070B5C2790D001C23002A0CD0C28D173B82
S1131710002A08D1054B0468984702232585227EB8
S11317201A42FCD00023180070BDC0463D140000CE
S113173070B582790E001C23002A2ED0828D173BAF
S1131740002A2AD104250468227E2A4225D0144B7B
S11317509847638BDBB29A061CD00222134202D054
S113176062831A2319E02B4202D065831E2314E0FE
S11317700122134202D0628313230EE0102213428B
S113178002D06283422308E02022134202D0628303
S1131790412302E0238D33800023180070BDC0462E
S11317A03D140000F8B5574B8000C4582568EB6918
S11317B0002BFCD12B7EAF7D1F40230030331A78E1
S11317C05E78012316401F4220D0E28D002A1CD0EF
S11317D0A16A0B78DAB24B1CA3626379012B01D0A6
S11317E093B204E04B7802311B021343A162DB0580
S11317F0DB0D2B85E38D013B9BB2E385002B05D1EB
S113180001332B750133AB7500E02B7502231F42A6
S113181009D02B752300002233331A70F30702D545
S11318202000E368984704231F424BD0A28D002A6E
S113183047D06B8BDBB21A0701D43F2200E037227A
S113184013401CD002221A2113420FD104221E215C
S113185013420BD101221321134207D1102242213A
S1131860134203D12022134204D0412123003233F6
S113187019706A83730725D5200063691FE02B8DD7
S1131880616ADB05DB0DDAB20A70626A511C6162BF
S11318906179012904D11B0A5370636A01336362BD
S11318A0A38D013B9BB2A385002B0BD104222A7587
S11318B0220032321370B30704D5200023699847FD
S11318C000E02B7510231F4206D02B752B761E4289
S11318D002D02000E369984720231F4206D02B75CD
S11318E02B76330702D52000A369984708231F42AB
S11318F006D02B752B76B30602D5236A20009847B1
S1131900F8BDC046FC030020002210B54309C409F9
S1131910944202D1DA01064BD2181F2318401E3B11
S11319208340002901D0936100E0536110BDC0469B
S11319300044004170B5046805000A4B2000984734
S11319401F2318401E3B8340074AD3672A68D36984
S1131950002BFCD102228F33237523762368934313
S1131960236070BD851F000004E100E003680520CA
S11319701A7ED20703D50020C905C90D99627047A4
S1131980042230B5036804001D7E102015420ED0D9
S11319905D8B0020154201D05A831E30A2799B6AC8
S11319A0012A02D1DB05DB0D00E0DBB20B8030BD88
S11319B0F7B56B469D1D002304002B80194B066868
S11319C00F0098472068C369002BFCD1164B984739
S11319D01430164BC0B29847154B01002A0038004A
S11319E0984703001720002B1AD12B7833732568EE
S11319F0EB69002BFCD10F4B280098471F2318409C
S1131A001E3B83400C4A13602268D369002BFCD12F
S1131A1002222B6813432B602368D8690028FCD169
S1131A20FEBDC04635190000251000000543000026
S1131A30C10D0000851F000000E100E0F0B50500C5
S1131A40296014000A6889B00F001C23920700D58E
S1131A50BDE001260B6833400193019A0523002A57
S1131A6000D0B4E008005B4B9847811C8E405A4A72
S1131A701430136A1E431662631DDB7F02AAC6B2CA
S1131A80137011003000554B98473000544B984761
S1131A90631DD87F0199534B98474E4A237801928E
S1131AA0012B03D10C223B6813433B602B002A001B
S1131AB000210C33283202C300269A42FBD12B00AA
S1131AC03633AE86EE622E86AE621E705E709E70F7
S1131AD0032328686B72019B2E7198470700424BC1
S1131AE042499847424BBF00FD50802302AA13711C
S1131AF00123937123782F685671D671B34200D1B4
S1131B0093710026A36A0493E36A0593236B0693F7
S1131B10636B0793B30004AA9858F1B2002802D16A
S1131B203800344B9847431C06D002AB1871000CA4
S1131B30C0B203A9304B98470136042EEAD123786A
S1131B406B71237CAB71A37CEB71237D2B7202AB95
S1131B509E1C002333802378012B10D1019B28681D
S1131B6098471430254BC0B29847254B01003200EA
S1131B70A06998471723002829D133783B73A368B9
S1131B806268617C1A43E3681A43237C002903D109
S1131B901C498978890701D580210A43A17C002941
S1131BA002D0802189020B43E17C002902D08021EC
S1131BB089000B43217D002902D0802189010B4338
S1131BC039680A433A607A6813437B60002318003B
S1131BD009B0F0BD2510000000040040B942000027
S1131BE031420000810E00004D1F0000A11D0000C5
S1131BF0FC030020C50E0000BD43000005430000A7
S1131C00C10D000000200041F0B585B00193030030
S1131C10009138331B780500D8B2052837D0172037
S1131C20002A34D0EB790530002B30D00026140084
S1131C306B79012B08D12A680121137E0B42FBD05A
S1131C4001992800134B98472A680421137E0B42FC
S1131C50FBD002AB9F1D002339003B8028000E4BB4
S1131C609847002813D100993A88731C8A55A9799A
S1131C709BB2012904D100990236120ACA54B3B2A4
S1131C80013CA4B2002C01D01E00D1E7200005B015
S1131C90F0BDC0466D1900008119000073B50E0037
S1131CA0417905001400152001292DD12A7A002A32
S1131CB001D0002028E03078144B002C22D0747816
S1131CC0002C1CD02C68247E0C4202D1984705209D
S1131CD01AE0110098470E4BB17828009847EB7929
S1131CE0002BE6D1296804330A7E1A42FCD06B46E5
S1131CF00024991D2800074B0C809847D9E7210040
S1131D009847D6E79847200076BDC04609190000D9
S1131D106D190000811900000300F7B538331B78F2
S1131D200500D8B20F00052835D01720002A32D07C
S1131D30002614002B6801211A7E0A42FBD0721877
S1131D40A97992B2BB5D012902D099B2160004E0D0
S1131D50B95C02360902B6B219430F4B2800984702
S1131D60EB79002B09D02A680421137E0B42FBD0A7
S1131D706B462800991D094B9847013CA4B2002CDE
S1131D80D8D16B792000012B05D1296801330A7E53
S1131D901A42FCD00020FEBD6D190000811900001C
S1131DA0F8B5674B8000C45823002200373336321D
S1131DB025681B7816781E402B7EAF7D1F40FB07DD
S1131DC03AD56279012A37D1637A002B0DD15D4B64
S1131DD01B88AB62638E013B9BB26386638E002BD0
S1131DE000D12A756379012B26D1637A002B23D085
S1131DF0E06A21680378DAB2431CE362A379012B19
S1131E0001D093B204E0437802301B021343E06232
S1131E10DB05DB0D8B62A38E013B9BB2A386A38EF5
S1131E20002B09D101332B75637A012B04D1E3799B
S1131E30002B01D10233AB7504210F425CD06B8BB4
S1131E400B4213D0637A012B0CD023001E223833AB
S1131E501A700323637202332B75330702D52000F3
S1131E60A3699847AB6A04236B8345E0627A2368CD
S1131E70D2B29B6A012A12D1638E013B9BB2638664
S1131E80638E9BB2002B37D12975210038310B703A
S1131E900333637216422FD02000E3682BE0DB0586
S1131EA0A16ADB0DDAB20A70A26A511CA162A1799F
S1131EB0012904D11B0A5370A36A0133A362238E40
S1131EC0013B9BB22386238E9BB2002B14D12200AC
S1131ED03832137004332B75627A022A04D11E42FD
S1131EE00AD02000636906E0637A002B04D1B307AB
S1131EF002D520002369984702210F4214D0637948
S1131F00012B11D1637ADBB2012B0DD1E279002AC6
S1131F100AD1297501316172210038310A701E42DB
S1131F2002D02000E3689847FF0907D080232B756F
S1131F302B76730602D5636A20009847F8BDC04625
S1131F40FC030020F803002070470000F0B5094AA4
S1131F50094C1378002B09D11E00084F084DE75097
S1131F60EE500433182BFAD1173B13708000215024
S1131F70F0BDC046BF000020C0000020491F000083
S1131F80FC03002013B50400062205496846054BEE
S1131F9098472000044B98476B46185616BDC04618
S1131FA074630000A94C00002510000010B5024B1A
S1131FB000201B68984710BDC000002010B5024BDC
S1131FC001205B68984710BDC000002010B5024B8B
S1131FD002209B68984710BDC000002010B5024B3A
S1131FE00320DB68984710BDC000002010B5024BE9
S1131FF004201B69984710BDC000002010B5024B97
S113200005205B69984710BDC000002070B5094BDE
S113201000209847FA21084C89000500A047074B87
S1132020074918602800A0470522064B1860064B94
S11320301A6070BDA9410000014900002800002079
S113204040420F002400002010E000E070B580241E
S11320500021084B084A1B686402013808D3002B8E
S1132060FBD0054E5360916035682542FCD0F4E7FF
S113207070BDC0462800002010E000E037B56B4674
S1132080991DFF23094C01222000094D0B70A8471C
S11320906A46084B20001B88D11D012B01D1FD335A
S11320A000E0FC2301220B70A84737BDDC000020B0
S11320B0191D0000D8000020F7B56B46FF240F4E11
S11320C0DD1D0122230029000D4F30002C70B8477C
S11320D02300012229003000B8470A4CFF230122C3
S11320E029003000064F013CB847002C04D02B785F
S11320F0FF2BF3D1012000E02000FEBDDC00002016
S1132100091C0000410D0300F7B56B46DD1D0023DB
S11321100F26114C2B70013C002C04D104220F4BD0
S113212020001A7016E0FF23012229000C480D4FED
S1132130B8472B781800B04309D10721074A0B4050
S113214001D0117006E00B211800117002E0FE2B83
S1132150E1D10120FEBDC04621A107001E010020DF
S1132160DC000020091C000037B56B46991D0123D3
S1132170124D5B420B8002222800114B98476B469C
S11321805C1D01222800FF2321000E4DA8471120C9
S113219022781040012803D001220B4B1A700AE068
S11321A01E231340042B07D0074A0A2B01D1023BFC
S11321B000E00A23137000203EBDC046DC0000206E
S11321C0191D0000091C00001E010020F7B5134B67
S11321D01D882C1E012C1FD0114B01241988114B72
S11321E01868114B9847854216D86B46DD1DFF23AE
S11321F00E4F220029000E4E38002B70B047FD23ED
S11322002200290038002B70B0470A4B9847041E5F
S113221002D10522084B1A702000FEBDD800002010
S11322201C0100201801002001490000DC000020EE
S1132230191D0000B92000001E010020F0B5002582
S11322402F4B91B001261D706B46694622202D4FFD
S11322501D705E709D70B8470D236B4402ACDD7732
S113226029000C22284B08A8267025746574A674CE
S1132270E674257503950495984780235B02E36013
S1132280224B234DA362234B2200E362224B2349BA
S11322902363234B28006363224BA361224B98479B
S11322A02C68224B200098471F2318408640204B5F
S11322B01E602B68DD69002DFCD1022223681D4EAF
S11322C01343236001241C4A1C4B107801A95D7040
S11322D09D70187030707570B5704C708D700C7086
S11322E0B84731784B09CA0908D11F320A409440D3
S11322F0134ADB019B189C6111B0F0BDAD61FFDE98
S11323001E010020C1290000BB4C000003000C008A
S1132310DC00002003000D0003002A000018004226
S113232003002B00801A06003D1A0000851F0000E0
S113233000E100E0220100202C0000201F01002009
S11323400044004100220E4B70B51A700D4B06007C
S11323500C1E9C4200D91C000B4D210028000B4B85
S11323609847172802D1E308E41AF5E703217143DB
S11323700800074901220918064B2800984770BD38
S11323801E01002040420F00DC000020B1190000B3
S1132390220100209D1C00000022054B10B51A707C
S11323A0032358430349044B09180448984710BDB4
S11323B01E010020220100209D1C0000DC000020E2
S11323C037B56B46DD1DFF2300220A242B70064B14
S11323D01A70013C012229000448054BE4B29847D5
S11323E0002CF6D137BDC0461E010020DC000020C1
S11323F0191D0000F0B589B00192FF22029304ABCD
S11324009A7100224C4B00901A703F23009C06A83E
S113241023404024234303700B0E43700B0C837042
S11324200B0AC3700925130001710821845C5B0049
S1132430DBB21E006640360600D56B4001396400ED
S1132440C9B2E4B20029F2D10132052AEDD1012545
S11324505B003A4C2B4306AF7B7104AB991D2A00F9
S1132460374E2000B047390006222000B04704ABA5
S1132470D91DFF232A002000324D0B70A8470725E1
S1132480039404AB2D4FDC1D0122FF2321003800EF
S11324902C4EB047227853B2002B05DA013DEDB241
S11324A0002DEED1022205E00820274C10402260C6
S11324B004D00622204B1A7000203AE004200300C6
S11324C0134001D00922F5E701218A4302D01A4AB8
S11324D01170F1E7009B9B0407D51C4B984700281B
S11324E003D10322144B1A7023E0009B9B0507D5EC
S11324F00023210023600122FF333800114CA04740
S1132500009B5B0509D5104CFF230422210003988E
S11325100C4DA84723681BBA23606A460C4B92886B
S113252001201A806A460B4B12891A8000220A4B3A
S11325301A6009B0F0BDC0461E010020DC00002076
S1132540191D0000091C000028010020B92000000A
S11325501C010020D800002018010020002213B51F
S113256013000092014CA04716BDC046F52300009D
S1132570014B18687047C046280100200022F0B5BE
S1132580144B154E154C85B001901A703188144DBA
S11325902068A8470096002914D0124FFF2301A9F0
S11325A004223800104EB0472368181D009B206099
S11325B01988A84700290AD1FF23022203A9380059
S11325C0B04704E0094B98470028E6D100E0012019
S11325D005B0F0BD1E0100201C01002018010020E0
S11325E00D4A0000DC000020091C00000921000045
S11325F0F0B500250C00124B85B001901D70002C25
S11326001AD0104B9847013CA4B2002815D00E4FA5
S1132610019B3A8859190D4EFF230D48B0470D4AC6
S11326203B881168ED18CB18136003A9FF2302221D
S1132630064E0748B047E2E7012005B0F0BDC046AA
S11326401E010020092100001C010020091C0000BB
S1132650DC0000201801002001207047F7B5002499
S11326600700134B1C7001934D1EADB200291DD001
S1132670104B9847104E39193288104B1048984720
S1132680104A33881168E418CB1813600E4B98472E
S113269000280CD0002D07D00C4B9847002803D1FC
S11326A00523019A137002E02900DDE70120FEBD35
S11326B01E0100207D2000001C010020191D0000C7
S11326C0DC0000201801002069210000B92000006E
S11326D010B5054B9847002803D10522034B1A7007
S11326E001E0034B984710BDB92000001E010020F3
S11326F0CD210000030010B50120002B01D1014BB6
S1132700984710BDBD09000010B50123002803D16E
S1132710024B080098470300180010BDED090000A3
S113272043425841C0B27047030010B50120002B4A
S113273001D1014B984710BDFD09000010B50123DC
S113274004000800002C03D1024B11009847030039
S1132750180010BD4D0A000010B501230400080044
S1132760002C03D1024B110098470300180010BD40
S1132770A10A0000024B187D012318407047C0468F
S113278000400041042170B51E4A1F4DD369040066
S11327900B43D3612023FF332B831C4B9847030047
S11327A00520002B2DD0C022237892001B02134059
S11327B01E221800A37880215B0013400343627833
S11327C0E078D201800413430200C9020A40C02108
S11327D013431800237989021B040B401A000300D9
S11327E0082113436B60AB68094A5B035B0F994094
S11327F01180AB68538063781371288BC005C00FB8
S1132800000170BD00040040004000417527000035
S11328102C010020F7B5264A009153881188009AAC
S11328204B430400934207D28022009B2149182085
S11328305B18920193423AD880231F4DDB026F68E4
S11328402E003B436B602023FF332B831B4B9847A5
S11328501A4B0193002802D16F60053027E0062C43
S113286006D8052C0BD2022C0FD0042C12D10CE06C
S1132870402C0FD3412C08D9452C0ED90AE02B8BC0
S1132880DB0502D56F60102011E0009B9B085B0004
S1132890F36102E07760172009E0A5231B021C43C3
S11328A03480019B98470028FBD000207760FEBD50
S11328B02C01002000C07FFF00400041752700006C
S11328C0F7B51500214A0F001388518804005943B5
S11328D000921822814236D3591E084233D1013A5C
S11328E0AB4230D31A4EB047052200282BD0194BE7
S11328F0194A1A800193B0470028FCD02023019A7A
S1132900FF3313830023600840006E1E9AB2954281
S11329100DD99AB2B95CB24201DB8AB203E0BA18AB
S1132920527812020A43C1180A800233EEE70022E9
S1132930009B1B79934206D13F2D04D8210004202B
S1132940064B984702001000FEBDC0462C01002033
S1132950752700000040004144A5FFFF1528000032
S113296070B5134A04001388528818205A43A242AF
S11329701CD39B00013B1C4218D10E4DA8470300F9
S11329800520002B12D020220B4BA408FF32640038
S11329901A83DC611C00094A1A80A8470028FCD06D
S11329A01C23208B1840431E9841800070BDC046F4
S11329B02C010020752700000040004102A5FFFF04
S11329C007B5802201AB1A700A785A704A789A7057
S11329D08A781900DA70014B984707BDBD4300009F
S11329E0002310B59A4203D0CC5CC4540133F9E7F8
S11329F010BD8218904202D001700130FAE770478E
S1132A0082690239023A03000020914203D2987885
S1132A104143986A08187047010000230B315A0893
S1132A20DB011343027801309B18DBB28842F6D1F4
S1132A3018007047F7B5C56A04000E008D4201D135
S1132A40002033E00379002B02D1002EF8D023E0DC
S1132A50030030330193407801232A000199144F75
S1132A60B847002801D0012020E0236AE2692071E0
S1132A709B189D42E9D2E3780093009B012BE4D993
S1132A80E3696078ED182A0001230199084FB847DB
S1132A90009B013BDBB2EFE72100607801233200A9
S1132AA03031044DA8470028DDD1E662FEBDC046A2
S1132AB0DD1100006D11000070B500212C4B0400E5
S1132AC09847051E52D12378032B47D16379002BF5
S1132AD044D02600802230360100E06292003000AB
S1132AE0244B98475522244B4121E254234B9218FE
S1132AF0E2542200DE3BFF3B31323370137023007B
S1132B006122323385201A70597072238000235455
S1132B101B4823541B4BE1541B4BE2542369B8322A
S1132B20FF32A354194A1912A154194A190CA15479
S1132B30184A1B0EA354E3680132A354164A19120F
S1132B40A154164A190CA154154A1B0EA354310062
S1132B50607801236269134EB04765710022124BFD
S1132B60607811009847431E9841C0B270BDC046BA
S1132B70352A0000F32900002E0200002F02000075
S1132B8015020000160200001702000019020000DE
S1132B901A0200001B0200001D0200001E020000B9
S1132BA01F020000DD1100004D12000010B50923C2
S1132BB000280CD00278002A09D0C2888A4206D1A3
S1132BC0044B407898470323C007C01703401800FC
S1132BD010BDC046511100000A00010070B530312B
S1132BE0040001234078164DA84701000320002962
S1132BF024D1144B144AE35CA25C1B021343134A12
S1132C001BB20138934219D1230066331A885B88BA
S1132C1008001B0413430E4A1B021B0A93420DD0E7
S1132C2023008434823320881B8800041843000264
S1132C30084B000AC018431E9841C0B270BDC0467C
S1132C406D1100002F0200002E02000055AAFFFFA4
S1132C5046415400BABEABFFF0B5036885B01D7899
S1132C601600303D092D09D85A783A2A06D1023384
S1132C7003600B23072D00D914E100E000258B4BE2
S1132C80AA00D4580C230C60002C00D10AE123784C
S1132C90002B0DD0864B607898470123034007D161
S1132CA0002E00D1FEE0420700D4FBE00A23F9E045
S1132CB00023E8B2237060707E4B98470323C20759
S1132CC000D5EFE0002E01D04307EFD4002120000F
S1132CD0794DA84700230193012818D1F333FF331A
S1132CE0E35C002B01D10D23DCE0FB235B00E61841
S1132CF0E05C7378F2781B0203431900B378120680
S1132D001B040B431A43110020000192A84701231E
S1132D10032800D1C6E00028E5D1230022003C337B
S1132D201B783B3212781B02134380221BB29200A1
S1132D309342D8D12300220047331B7846321278BD
S1132D401B02134300D1636D0293029BE3612300D2
S1132D5040331B785A1EE370012AC4D822003D3246
S1132D601178A1700029BED04A1E1142BBD12200A5
S1132D7042321778013A12783F02174327813A0703
S1132D80B1D1220044321078013A12780002104383
S1132D9000D1206D22003F321578013A12782D02BD
S1132DA01543A0D0029A3E095A437619B6180392E5
S1132DB0B04298D3801B414B9847002893D0019987
S1132DC0019A4D193E49831C921988420CD93D49F8
S1132DD088425ED9A361A2622562002F83D1E26D8D
S1132DE09B00626203260CE00126A361A2622562B5
S1132DF0002F00D177E7039AAD186562022E4AD1FD
S1132E005B00314A9B18029A5B0A9A4200D26AE735
S1132E1001235B4223610023E360032E2ED16371FF
S1132E202300210061331A78013B1B7812021A43F4
S1132E30019B6078D218626101233031234DA84789
S1132E4000281BD1224B234AE35CA25C1B021343E0
S1132E50214A1BB2934211D1204B226B9A420DD1CD
S1132E6085239B00E2581E4B9A4207D187239B007F
S1132E70E358E36086239B00E3582361194A2670D4
S1132E80138801339BB21380E3800023E362237130
S1132E9008E00226A9E7032201265A4333405208D8
S1132EA0D318AEE7180005B0F0BDC04634010020C9
S1132EB051110000C1100000D92B0000014900008D
S1132EC0F50F0000F5FF0000FF0100006D11000088
S1132ED02F0200002E02000055AAFFFF525261414A
S1132EE07272416132010020F7B5012405000E1E03
S1132EF0A64264D98369994261D20378022B2AD00D
S1132F00032B3DD0A34258D14F08036A7F18790A96
S1132F10C9182C4B984700284FD1FB05DB0DEB1843
S1132F2030331B78013701932B6A790AC9182800BA
S1132F30244B9847002840D1FF05FF0DED1930358B
S1132F402B78019A1B021343264201D01C0936E058
S1132F501C05240D33E0036A090AC918194B984764
S1132F6000282AD1FF2376005B001E403300303353
S1132F70EB18AE195C783036337824021C431EE01B
S1132F80036AC909C9180F4B9847002815D1FE23B5
S1132F90B6005B001E4032003032AA18D478937811
S1132FA024061B041C435378AE191B0230361C4301
S1132FB033781C432401240901E0012464422000E5
S1132FC0FEBDC046352A000070B50400E1800D0046
S1132FD08168012901D1022039E003689A6991428C
S1132FE0F9D200290FD11A78032A02D1596A00298B
S1132FF009D10022E2601A89AA42ECD95B6A2A0943
S11330009A18226119E09E783601B5420ED32068E1
S11330100F4B98470100431C18D00128DBD92368C3
S11330209B699842D7D2AD1BADB2EEE7094BE16084
S1133030206898472B09181820610F2322681D4027
S113304030326D0155196561002000E0012070BD2A
S1133050E92E0000012A0000F7B504000E00150057
S11330600220012978D9A369994275D22778874229
S113307040D0032F52D0012F6CD14B085B18019321
S1133080590A236A2000C918344B9847334B002847
S113309060D1019A3E40D205D20DA218E9B2002EA9
S11330A007D01100303108780F2101402801014375
S11330B0C9B2303211700122019F22710137226A94
S11330C0790A891820009847002843D1FF05FF0D8D
S11330D0E719002E02D02D09EDB208E03B00303391
S11330E01A780F232D0A9A432B401A4315003037C0
S11330F03D702FE0236A090AC9182000174B98472E
S1133100002827D1FF2376005B001E40A31930332B
S113311030361D70A6192D1275701BE0236AC9097B
S1133120C91820000D4B9847002813D1FE23B60080
S11331305B001E4033003033E318DA78A619120915
S1133140120715432A12303635705A702A0C2D0E88
S11331509A70DD7001232371FEBDC046352A00003C
S1133160F8B505000E1E06D1C768002F0CD0836980
S11331709F420AD308E0214B984701283CD9AB6908
S11331803700984201D238E001273C00AB69013492
S11331909C4204D3012F01D800202EE002242100F8
S11331A02800164B9847002809D0431C02D101205F
S11331B0404222E001281FD0BC42E7D1ECE7104A8C
S11331C0210028000F4FB847002813D1002E08D142
S11331D02B69EC605A1C0BD0013B2B6101236B71F2
S11331E006E0220031002800B8470028F0D001E0B2
S11331F0200002E00128DAD00120F8BDE92E000009
S1133200FFFFFF0F59300000F0B5C68885B00136C6
S1133210B6B204000F00002E01D104206BE0036954
S1133220002BFAD00F22324002925CD1C1680133E4
S113323003610068002903D10389B342EDD952E048
S113324083783209013B1A424DD12C4B9847051E15
S1133250012D01D802204EE0431C01D101204AE097
S1133260206883699D4238D3002FD6D0E168244B6F
S1133270984705000720002D3DD0012DEAD06B1C96
S1133280ECD0204F00212068B84703970190031E1B
S1133290E4D1802220681900303092001A4B9847FC
S11332A0276829003800194B9847F862019F236862
S11332B09A78BA420ED901221A7100212068039B20
S11332C098470028CAD122680137D36AFFB2013374
S11332D0D362ECE7DA6AD71BDF62E5602900206875
S11332E00A4B9847206100202268029B30325B0120
S11332F0D318E680636105B0F0BDC046E92E000036
S113330061310000352A0000F3290000012A000081
S1133310F8B504000D1E012D01D8022022E08369B6
S113332001279942F9D2A3699D4205D229002000C0
S11333300D4B9847061E01D1002013E00128ECD064
S1133340431C0ED0002229002000084B9847002877
S113335008D123695A1C02D00133236167713500F7
S1133360E1E70120F8BDC046E92E00005930000015
S1133370FF23F0B507001C0087B001933969386852
S1133380464B9847002800D086E07E693378002BAE
S113339000D17CE03F22F17A0A40E52B6ED0090788
S11333A002D50F2A6AD101E00F2A4BD1FA690392A0
S11333B0002A64D040210B4205D08B431C00FB88BB
S11333C0727B3B8402E0A34258D1019A737B019340
S11333D0934252D14023357801229D43013D333B32
S11333E05D43002302932E4B0299C95C73185B78EA
S11333F0705C1B021843002A11D02A4B9847059091
S1133400FE2D3BD86B1C0493039B6D00E85A254B9F
S11334109847059B0200834230D1049D02E0224B71
S113342098422BD1029B013302930D2BDBD13378CD
S11334305B062ED5002A2CD0039B6D00EB5A002B83
S113344027D01BE0002C07D1184B30009847019B74
S1133450984201D100201FE00123BA695B423B84FA
S1133460D17A02330B4009D1581CF15CD35C9942E8
S113347004D1031E0B2BF7D1ECE70192FF240021AA
S113348038000B4B9847002800D177E704E004206C
S113349002E0013CE4B2F2E707B0F0BD352A0000D7
S11334A03E64000039130000FFFF0000192A0000E9
S11334B009320000F0B5C36989B0846905AD009391
S11334C00C22854B07002100280098470122EB7A43
S11334D0134257D000231600E372FB617E4B0B228C
S11334E0290020009847331E052B0AD900995A0851
S11334F0DB0313430A8802319B180A889BB2002A13
S1133500F5D1072103AA01920F221A403032101E6E
S1133510392801D907321000019A01391B095218C0
S11335209BB25070002BEFD17E22019842549942F5
S113353008D0E25C202A05D00133F8E7E2540133D5
S1133540072B06D820220729F8D803AA525C013198
S1133550F4E700213800614B984700280AD138006D
S11335605F4B9847002805D1731C9EB2642EB5D1D9
S11335705D3EADE0061E042E00D0A9E0EB7AE372B6
S1133580009BFB61EB7A012400209B070CD5009A79
S113359043009B5A002B02D0013080B2F7E7193068
S11335A00D21504B984784B24C4D00213800A84758
S11335B00095061E00D08BE00500396938684A4B37
S11335C09847002800D082E07B691B78E52B01D066
S11335D0002B07D1002E00D1FD880136B6B2B442CB
S11335E001D107E0060001213800404B984700282C
S11335F0E3D06CE0012C50D929003800009B984797
S1133600002864D1B8693A4B9847013C0190A4B2B0
S113361039693868344B9847051E58D16A46FB69A6
S113362012799C467B69E1B25A730F22187398761B
S1133630D8760D20DA724A1E5043009028002D4E91
S1133640B04205D06646009A5000805B0132009279
S1133650294EAE5D98559A19060A5670002800D175
S1133660244801350D2DEAD1224DA84205D06046EB
S1133670009A5200125A002A01D1402211431970B3
S113368001233A68002113713800184B9847002829
S11336901DD1013CA4B2002CBAD139693868124B4F
S11336A09847061E14D17C69010020222000134B88
S11336B098470B22084BB96920009847BB69DA7A0E
S11336C018231340012223733B681A7100E006009B
S11336D0300009B0F0BDC046E1290000C92F000048
S11336E071330000154A0000352A00000932000039
S11336F0192A0000FFFF00003E640000F3290000C7
S1133700F0B50B7887B0070001912F2B01D05C2B0B
S113371002D1019B013301930024019BBC601B78FF
S11337201F2B08D821003800974B98477C6129E16A
S1133730019B01330193019B1B782F2BF8D05C2B49
S1133740F6D00025FB690593019B6C1C585D1F286E
S11337501CD92F281AD05C2818D0FF2D00D10AE1DB
S113376001218A4B9847002800D104E17F2808D81A
S113377000238749CA5C002A03D001339042F9D15F
S1133780F9E0059B6D0058532500DDE7019B1B19EB
S1133790019300241F2383426441A400002D00D11F
S11337A0E9E0059A6B00D3189A1E1288202A01D0EA
S11337B02E2A01D1013DF1E700261E800B22754B14
S11337C02021B8699847330005995A008A5A202A5B
S11337D001D10133F8E72E2AFBD0002B06D00322B7
S11337E01443E4B202E0013D002D05D06A000599BE
S11337F0023A8A5A2E2AF6D1082202920022160090
S113380004925A1C0392059A5B00985A00285CD0D3
S1133810202804D02E2807D1039BAB420CD00323CD
S11338201C43E4B2039BECE7049B029A934208D244
S1133830039BAB421ED1A0E0049B029A934200D2A8
S11338409BE0029B0B2B05D103231C430833E4B2FA
S113385002933AE0039BAB4205D003231C43039B32
S1133860E4B2AB4231D80B23B6000293F6B203950F
S1133870033B28E07F280DD90021444B98470028BA
S113388003D0454B18188038007802231C43E4B257
S1133890002807D000234149CA5C002A07D001331D
S11338A09042F9D103231C43E4B25F2006E00300F5
S11338B0413B9BB2192B54D802231E43BB69049A83
S11338C09854130001330493ACE7BB691A78E52AD2
S11338D001D1E03A1A70029B082B01D1B600F6B26E
S11338E00C2333400C2B03D003223240032A02D191
S11338F002221443E4B2A2070BD403221640012E81
S113390002D10D321443E4B2042B02D104331C431C
S1133910E4B2BB690021DC7238001B4B98470028D5
S113392002D138001E4B9847BB69DB7A002804D0CB
S1133930042827D1034212D024E05B0722D47869FB
S1133940C37ADB060BD5437D017D1B020B43C27E8C
S11339501904837E120213430B43BB60EBE605207C
S113396010E00300613B9BB2192BA7D80123203838
S11339701E4380B2A2E7062004E0029B0B2B00D07A
S113398071E761E707B0F0BDC92F0000FD12000028
S1133990FA630000F32900007A6300000364000066
S11339A07133000010B50B2307280BD80022064BF7
S11339B08000C458944200D02270002900D00A70BC
S11339C019500023180010BD34010020F0B51F2742
S11339D01500002317401E224C4C0360A54401919E
S11339E04B4B06002A4005A901A8984702AB0B934C
S11339F00EAB0C93002803D1019905A8454B9847B9
S1133A000A9C002802D1002C00D106301C231D4240
S1133A1047D000280AD0042802D105A83E4B984775
S1133A2008230A9C1F43002808D06BE01123E27A84
S1133A3007201A4266D101306B0763D43B073FD598
S1133A40364B98470312E373030C23740023657DFC
S1133A50227D2D0215432A04E57EA17EA073000E6B
S1133A6060742D020598E37223776377A377E37775
S1133A70A376E376237563750D4301331543037110
S1133A801CD0C36A29000093254B9847002839D1DC
S1133A900598013DC5600099224B984700280BD03A
S1133AA030E000282ED1E37A0430DA062AD4AA07BB
S1133AB002D50330DB0725D43B0701D520231F4360
S1133AC0059DEB6A3462F361B771637D217D1B024E
S1133AD0E27E0B431904A37E120213430B433361AA
S1133AE0627F207FA37F120202431B0413431A0048
S1133AF00020E37FB0601B061343F360B0613560C0
S1133B00EB88B3808F239B009D44F0BDC4FDFFFF71
S1133B10592C000001370000B5340000B512000034
S1133B2011330000352A0000F0B51E00002385B0D3
S1133B303360009104008188534B00681500984756
S1133B40002800D09DE0A37902305AB2002A00DA9E
S1133B5097E00530DB0700D493E0E368A2682F0008
S1133B609B1A9D423BD91F0039E0A368DA0565D151
S1133B7020685A0A8578013D1540EDB2002D31D0F8
S1133B802368616902931800404B984700283DD090
S1133B90431903937B0A01934ED0029B7A0A9B78C4
S1133BA0AA189A4201D95B1B01936B46029A1B79AE
S1133BB050780099039A364DA84700284ED12168C1
S1133BC00B79002B29D1019B5D02009B7F1B5B19A4
S1133BD00093A3685B19A36033685B193360002FFB
S1133BE0C3D14DE0002B01D1206902E06169294B6A
S1133BF09847012806D88022A37952421343A3711F
S1133C0002203EE0431C01D06061B9E78022A37921
S1133C1052421343A371023033E0CB6A039A981AD9
S1133C20019B8342CFD98022009B40021818303177
S1133C309200194B9847C6E7039BA3618022A368AF
S1133C409200DB05DB0DD31A3D1E9D4200D91D00F9
S1133C50A1692068114B9847002806D08022A379D7
S1133C6052421343A37101200BE0A3682A00D90533
S1133C70C90D2368303159180098074B9847A4E7B9
S1133C80380005B0F0BDC046AD2B0000012A00008D
S1133C906D110000E92E0000E1290000352A000022
S1133CA070B51F4B0400818800689847002835D1FF
S1133CB02026A379334231D0E1692068194B984713
S1133CC000282BD1256AEB7A3343EB72237B2B77C5
S1133CD0E3681B126B77E3681B0CAB77E3681B0E7E
S1133CE0EB77237CAB7623691B12EB7623691B0CE1
S1133CF02B7523691B0E6B750B4B98470312A87524
S1133D00EB75030C000E2B766876A3792268B34317
S1133D10A371012313712068044B984770BDC046FA
S1133D20AD2B0000352A0000B5120000B92A0000AE
S1133D3010B5034B04009847002800D1206010BD43
S1133D40A13C0000094B196800290BD1EFF3108046
S1133D50074A002805D172B6BFF35F8F0549087082
S1133D60012111701A6801321A6070475401002051
S1133D70580100202D000020084B1A68013A1A60EF
S1133D801B68002B09D1064B1B78002B05D00122A0
S1133D90044B1A70BFF35F8F62B670475401002062
S1133DA0580100202D00002010230249CA681A423D
S1133DB0FCD070470008004010B5082806D800F071
S1133DC095FD0705052D2D110A142500002029E075
S1133DD0154B186926E0154B15481B6A9B059B0F6C
S1133DE0D8401FE0104B58691CE002230E4C206899
S1133DF0184017D00F4B984723685B0711D50E4B1B
S1133E0000209847A3689BB258430BE00B4B00205B
S1133E101B785B0706D5044BD86803E080200002BA
S1133E2000E0074810BDC0465C01002000080040C7
S1133E3000127A00A93D000005430000500800402C
S1133E40006CDC0270B50121867805784278402048
S1133E50094C0A40236A9201834313438022314070
S1133E60C90193430B437D3A044915402D020B408D
S1133E702B43236270BDC04600080040FFFCFFFFD7
S1133E80F7B5184EC378B56941780479009343793E
S1133E900422019301230778807895431840800019
S1133EA028430825009AA8431A4095014022194046
S1133EB0C900014391430A002A43072580211C407D
S1133EC02F403D02E4018A43074F22433A402A43EC
S1133ED01700019A13401A03044B3B401343B36188
S1133EE0F7BDC04600080040FFF8FFFFFFEFFFFFEB
S1133EF0F8B5082806D800F0F9FC130505390D19A2
S1133F00071F3400172032E00221194A136A0B43B9
S1133F1013622BE00221164A93690B43936125E057
S1133F200221134A138A0B4313821FE00221104A11
S1133F30938A0B43938219E0022200240D4E0C4D08
S1133F4033680D4F13433360AA84B847B368EB62F8
S1133F507368AB62AC84B847336820009BB2AB840F
S1133F6005E00221054A13780B4313700020F8BDC5
S1133F70000800405C010020A93D00004408004006
S1133F80C2231E21F0B5374DDB00374AAB605368BE
S1133F9000268B435360012387B003AC2370F0B237
S1133FA02100324B01369847252EF8D1304BA969B0
S1133FB01A68304BD204520E12040B401343AB6107
S1133FC00723002501A8243E03702B4B46708670FE
S1133FD0C570067145719847284F0420B8476B4651
S1133FE068465D709E701D70254B98470620B84743
S1133FF0244B98470423210023700220224B66603F
S11340006570257265729847204F0220B8470623D1
S11340102100237003201C4B666065706572267254
S113402098470320B8470623210023700420164B29
S1134030666065702572657298470420B847144B12
S113404021001D725D729D72DD72062328002370AB
S11340500D4B666065702572657298472800B847F5
S113406007B0F0BD0008004000400041B942000024
S113407024608000FFFF80FF813E0000F13E0000CD
S1134080453E0000A1400000C1400000694100001D
S113409000040040014B5878C0097047000C0040F0
S11340A00821054A93690B4393610123034A137062
S11340B011781942FCD1704700040040000C004004
S11340C0F8B50C784B782402060005000443002B55
S11340D002D08023DB021C434B7A002B02D08023C6
S11340E01B031C434B68012B13D95D1E1D40022288
S11340F0002D09D19A4202D201355200FAE78023F9
S11341002D0235435B0303E01D02802335439B02EC
S11341101C430B7A002B02D080239B031C430D4FBE
S1134120B8470028FBD10C4B98470C4B1E70B8477E
S11341300028FCD10A4B9D601D00B8470028FCD123
S113414080236A685B0213401C436C60054B9847EC
S1134150F8BDC04695400000453D0000080C0040F5
S1134160000C0040793D000070B50500094CA047E3
S11341700028FBD1084B9847084B1D70A047002826
S1134180FCD18021064A490253680B435360054B16
S1134190984770BD95400000453D0000040C004068
S11341A0000C0040793D0000F7B50700184EB047F9
S11341B00028FBD1174B9847174B1F700193B0474A
S11341C00028FCD1154D164B6868C004C00E9847F2
S11341D00400019B1F706B68DB02DB0F0193114B22
S11341E01F70B0470028FCD1AD680F4B9847019B66
S11341F02D022D0C002B07D1012D07D920002900F9
S11342000A4B9847040001E00135EC402000FEBD54
S113421095400000453D0000040C0040000C0040A7
S1134220B93D0000080C0040793D00000149000040
S113423010B50400064B98478021064B064A1C70B3
S11342405388C9010B435380044B984710BDC046A3
S1134250453D0000020C0040000C0040793D000088
S113426070B504000E4B98470E4B0F4A1C700F4B51
S1134270598858880905104058805C880C48090FF3
S1134280204080245880E4015D8808482542FBD101
S113429044880B0222401A434280064B984770BD63
S11342A0453D0000020C0040FFF0FFFF000C004001
S11342B0FFBFFFFF793D000010B50C78034B2402CB
S11342C004439847024BA4B25C8010BD61420000D5
S11342D0000C004010B50400064B9847064B074AF3
S11342E01C70C02351881B020B435380044B984716
S11342F010BDC046453D0000020C0040000C0040CB
S1134300793D000010B50400064B9847064B1C701D
S1134310064B5C88064B2405240F98472000054B68
S1134320984710BD453D0000020C0040000C0040C1
S1134330793D0000A9410000D37830B5002B1BD192
S11343401478802C03D0802324065B0223430225A7
S11343505478AC4309D19478002C02D18024A4026F
S113436001E0C024E402234341605478013C012C61
S113437004D8114C234001E000234160A0258CB2F5
S1134380ED052C43D0251C4384622D060C0C2C43D4
S11343901C438462D478002C0CD15B0305D593783C
S11343A0012B01D1816100E041615378013B012B74
S11343B000D8816030BDC046FFFFFBFF10B50A0086
S11343C004004309C1090020814202D1D801054BF0
S11343D0C0181F231C401E3BA3401900024B9847E2
S11343E010BDC046004400413943000007B5084BE6
S11343F098470123002201A94B700B701120054B33
S11344008A7098478022044B92029A61FEE7C04664
S1134410813F0000C129000000440041FEE7000084
S11344202148224970B5884202D00023204C03E081
S1134430204B214A002106E0CA18A242F8D2C558EE
S113444004331560F8E7934201D202C3FBE7FF216E
S113445002240325194B1A4A8B430C269360082225
S1134460184B19495C62CB78AB432343CB70CB78B0
S1134470B3431343CB703021144B987B88431039DA
S113448008439873997BB1431143997380219A7BB4
S1134490AA4322439A730E4A53680B4353600D4B4D
S11344A098470D4B9847FEE7246600000000002063
S11344B094000020940000204C0400200000000020
S11344C000ED00E0FC700041005000410048004154
S11344D0004000415D4C000085450000054B020092
S11344E01968002901D104491960186882181A60F2
S11344F07047C0467401002050240020012040422F
S1134500704780239B0100204B6070470120704757
S11345100020704773B56B469C1D002306000D00F8
S1134520238021003000034B98470028F9D12388C9
S11345302B7073BD3117000070B504000D00A9B2D3
S11345402000024B98470028F9D170BD01170000E4
S113455007B500236A466946137001224A70033284
S11345608A700B7108324B716846044BCA709847C5
S11345708022034B9202DA61FDE7C0465D1300001E
S1134580004400418022F0B5A44C9200A5440021CF
S1134590A34B1CA89847A34B98478023DB050C9397
S11345A0FF2301250CAA138104A9DA3B5B18DD77EC
S11345B026235B18DD77272300245B18DC770EABFA
S11345C0DC7717AB1C704D235B181C701323937698
S11345D0C4239B03D36001235B4213635363924B55
S11345E0924E9363924B9349D363E1235B0213622C
S11345F0914B54601E60914B9472D47294625461D6
S11346001482D476147614775476547719608C49CE
S11346108C4B300019608C498C4B98478C4F21008F
S11346203B6898688B4B98473B6821005868894BD6
S113463098473468884B200098471F2318408540CA
S1134640864B1D603268D369002BFCD1022223689B
S11346500C2013432360824B9847824D8248A8471D
S11346608248A8478249834A8348A8478348A84781
S11346708348A847834B84481C78E4B22100A847A8
S1134680102C0AD003D88148012C09D00AE0202C30
S113469005D07F48402C03D004E07E4800E07E48EB
S11346A07E4B98470425062700247D4E7D4B75607C
S11346B01F70B5617C4B984706A87C4B04705B68FF
S11346C0C470DB061B0F8370794B047144709847E8
S11346D00A227849784B08A898471A2004AB3A0074
S11346E021004F4FC018B847724909221031724B4C
S11346F00CA89847292004AB07222100C018B8470A
S1134700336A20001D406D4904AB6D4CDD70A04739
S113471004ABDB78534F02966A4D0122002B06D07E
S113472008A92800684B984708A9060005E00CA9C9
S11347302800654B984706000CA96448B847002E2A
S113474052D180245F4B2402DE68802301969B00B3
S11347509E4200D901935B4D05AB5D4F019A1CA9A4
S11347602800B8476B469F88019B0395402B18D9B6
S11347702500FF231D4202D12800564B9847291BD0
S11347801CAB403F591828004022534B4035BFB260
S11347909847291B402FECD81CAB59183A00280025
S11347A008E0FF231C4202D120004A4B98473A00FC
S11347B020001CA9484B9847019B029AE418F61A5A
S11347C080239B02D361002EBFD1354A93610398A5
S11347D0424B984731003A4B30009847214C4048AF
S11347E0A0472648A04717E03C4B280098470021E3
S11347F00800A047AF203B4C80008026A04703253B
S1134800B602029B64209E61A047029BC8205E61A1
S1134810013DA047002DF4D1334B98478CFDFFFF99
S1134820BB4C0000ED43000002000A001404002009
S113483002000B0039450000E0030020DC030020E7
S113484015450000D8030020000800424914000068
S113485090000020014E0000851F000000E100E0F0
S1134860014D0000CD4C00006B6400009564000015
S1134870B9640000B0640000C56400006D64000009
S1134880DF64000038040040ED640000F2640000BE
S113489015650000FC6400000A650000ED4D000091
S11348A00044004142440041150D00000040004115
S11348B0852700004B640000A94C00009C010020E7
S11348C0A539000078010020CD39000023650000DF
S11348D0293B000061290000C1280000313D00008F
S11348E0416500004D2000005145000002B47146AE
S11348F049084900095C49008E4402BC7047C0461F
S1134900002243088B4274D303098B425FD3030A0A
S11349108B4244D3030B8B4228D3030C8B420DD31D
S1134920FF22090212BA030C8B4202D312120902AB
S113493065D0030B8B4219D300E0090AC30B8B42E9
S113494001D3CB03C01A5241830B8B4201D38B0397
S1134950C01A5241430B8B4201D34B03C01A52413C
S1134960030B8B4201D30B03C01A5241C30A8B427F
S113497001D3CB02C01A5241830A8B4201D38B026A
S1134980C01A5241430A8B4201D34B02C01A52410E
S1134990030A8B4201D30B02C01A5241CDD2C30980
S11349A08B4201D3CB01C01A524183098B4201D3FC
S11349B08B01C01A524143098B4201D34B01C01AE7
S11349C0524103098B4201D30B01C01A5241C3085F
S11349D08B4201D3CB00C01A524183088B4201D3CE
S11349E08B00C01A524143088B4201D34B00C01ABA
S11349F05241411A00D20146524110467047FFE726
S1134A0001B5002000F0F0F802BDC0460029F7D03F
S1134A1076E7704703460B437FD4002243088B425A
S1134A2074D303098B425FD3030A8B4244D3030B31
S1134A308B4228D3030C8B420DD3FF22090212BAF6
S1134A40030C8B4202D31212090265D0030B8B4272
S1134A5019D300E0090AC30B8B4201D3CB03C01A5C
S1134A605241830B8B4201D38B03C01A5241430B37
S1134A708B4201D34B03C01A5241030B8B4201D327
S1134A800B03C01A5241C30A8B4201D3CB02C01A92
S1134A905241830A8B4201D38B02C01A5241430A0A
S1134AA08B4201D34B02C01A5241030A8B4201D3F9
S1134AB00B02C01A5241CDD2C3098B4201D3CB01A0
S1134AC0C01A524183098B4201D38B01C01A52414F
S1134AD043098B4201D34B01C01A524103098B4253
S1134AE001D30B01C01A5241C3088B4201D3CB003E
S1134AF0C01A524183088B4201D38B00C01A524121
S1134B0043088B4201D34B00C01A5241411A00D2D0
S1134B1001465241104670475DE0CA0F00D0494239
S1134B20031000D34042534000229C4603098B42A9
S1134B302DD3030A8B4212D3FC22890112BA030A31
S1134B408B420CD3890192118B4208D389019211B3
S1134B508B4204D389013AD0921100E08909C30938
S1134B608B4201D3CB01C01A524183098B4201D33A
S1134B708B01C01A524143098B4201D34B01C01A25
S1134B80524103098B4201D30B01C01A5241C3089D
S1134B908B4201D3CB00C01A524183088B4201D30C
S1134BA08B00C01A5241D9D243088B4201D34B0027
S1134BB0C01A5241411A00D20146634652415B1069
S1134BC0104601D34042002B00D54942704763464A
S1134BD05B1000D3404201B5002000F005F802BD8F
S1134BE00029F8D016E770477047C0469140031C6F
S1134BF090409C46203A9340194352426346D34026
S1134C0019437047F0B54F464646C0B41604360CF7
S1134C109946330005042C0C070C150C63437E43A2
S1134C206F4365431C0CAD1964199C46A64203D915
S1134C3080235B02984647446346250CEF191D0404
S1134C404B464A4343432D0C240464199918C9194B
S1134C5020000CBC90469946F0BDC0460E4B70B582
S1134C6000251E000D4CE41AA410A54204D0AB008C
S1134C70F35898470135F8E701F0C4FC084B0025C8
S1134C801E00084CE41AA410A54204D0AB00F3584B
S1134C9098470135F8E770BD106600001066000003
S1134CA01066000014660000002310B59A4203D079
S1134CB0CC5CC4540133F9E710BD0300821893425D
S1134CC002D019700133FAE7704700000FB40B4BA0
S1134CD013B51C68002C05D0A369002B02D1200059
S1134CE000F00AFB05AB049AA1682000019300F0D0
S1134CF0C9FC16BC08BC04B01847C046900000208C
S1134D00084B70B51C680500002C05D0A369002B66
S1134D1002D1200000F0F0FA2900A268200000F07F
S1134D205DFF70BD9000002070B505000E000028E6
S1134D3004D08369002B01D100F0DEFAAB69AC68C2
S1134D40002B02D1280000F0D7FA254B9C4201D158
S1134D506C6808E0234B9C4201D1AC6803E0224B11
S1134D609C4200D1EC68A3891B0702D52369002B60
S1134D7011D12100280000F055F900280BD00120A2
S1134D8040422BE0013B0136A360002B08DB236883
S1134D905A1C226019703178A3680029F2D10BE003
S1134DA0A269934201DB0A29F1D12200280000F014
S1134DB0E1F8431CEFD1E2E7013BA360002B08DAE2
S1134DC022000A31280000F0D5F8431CD7D00A206D
S1134DD004E00A2023685A1C2260187070BDC04683
S1134DE07065000090650000B065000010B5034BCD
S1134DF001001868FFF798FF10BDC046900000201E
S1134E004A424A41802310B55200DB0000F002F808
S1134E1010BD0000F0B51D00514B85B01E680400A4
S1134E200F000092002E05D0B369002B02D1300090
S1134E3000F062FA4B4B9C4201D1746808E04A4B83
S1134E409C4201D1B46803E0484B9C4200D1F46811
S1134E50009B022B05D0012B00D97CE0002D00DA49
S1134E6079E02100300000F0D9F9616B002908D005
S1134E7023004433994202D0300000F03FFB00236A
S1134E8063630023A3616360A3891B0603D52169BF
S1134E90300000F033FBA289354B1340A381009B03
S1134EA0022B21D003AB02AA2100300000F0B8FA93
S1134EB0A3891843A081002D01D1029D01E0002F98
S1134EC025D1280000F010FB0195071E1AD1029B82
S1134ED00193AB4202D10120404206E0019800F068
S1134EE003FB071E0ED1F6E700200222A389134319
S1134EF0A3810023A360230047332360236101239C
S1134F0063612AE08022A389019D1343A381B369CD
S1134F10002B02D1300000F0EFF9009B012B03D1EC
S1134F20A389009A1A43A2810823A2892760134007
S1134F3027616561181E0CD001231A400023101E3E
S1134F40984204D06D42A360A561180005E0A560F5
S1134F5003E0A36001E00120404205B0F0BDC0467B
S1134F60900000207065000090650000B0650000AE
S1134F705CF3FFFFF8B505000F001400002804D00F
S1134F808369002B01D100F0B7F9234B9C4201D176
S1134F906C6808E0214B9C4201D1AC6803E0204BD3
S1134FA09C4200D1EC68A369A360A3891B070AD5BE
S1134FB02369002B07D023682269FEB2981A63691B
S1134FC098420FDB08E02100280000F02BF80028AD
S1134FD0F1D0012040421DE02100280000F01EF91C
S1134FE00028F6D1A3680130013BA36023685A1C52
S1134FF022601F706369984205D0A3893000DB07E3
S113500008D50A2E06D12100280000F007F900284F
S1135010DFD13000F8BDC046706500009065000027
S1135020B0650000364B70B51D6806000C00002DFD
S113503005D0AB69002B02D1280000F05DF9314B9B
S11350409C4201D16C6808E02F4B9C4201D1AC68B2
S113505003E02E4B9C4200D1EC680C22A35E9AB272
S1135060110723D4D10607D4092201203260373234
S11350701343A381404242E0530713D5616B0029D7
S113508008D023004433994202D0300000F036FAAD
S1135090002363632422A3899343A38100236360D1
S11350A0236923600822A3891343A3812369002B66
S11350B00BD1A023A2899B0013408022920093422B
S11350C003D02100300000F0D1F90123A28913405C
S11350D005D00023A36063695B42A36103E09207E8
S11350E000D46369A36000202369834207D10C22A2
S11350F0A35E1A0603D540221343A381013870BD71
S1135100900000207065000090650000B06500000C
S1135110F7B58A8905000C0013075AD44B68002B95
S113512002DC0B6C002B19DDE76A002F16D000237C
S11351302E682B6080235B011A4001D0606D14E05F
S11351400123216A2800B847431C0ED12B68002B89
S11351500BD01D2B01D0162B02D12E6000205AE05B
S11351604022A3891343A38155E0A3895B0706D595
S11351706368C01A636B002B01D0236CC01A002330
S11351800200216A2800E76AB847A389421C06D1B5
S113519029681D293AD8204ACA40D20736D50022A8
S11351A0626022692260DB0405D5431C02D12B68AE
S11351B0002B00D16065616B2E600029CED02300E6
S11351C04433994202D0280000F098F9002060632B
S11351D021E00F69002FC1D00B680F60DB1B019326
S11351E00023920700D14B69A36003E0019B3F18A1
S11351F01B1A0193019B002BB0DD019B3A00216A2D
S11352002800A66AB0470028F0DCA38940220120C8
S11352101343A3814042FEBD010040200B6970B5D9
S113522005000C00002B01D100201CE0002804D054
S11352308369002B01D100F05FF80B4B9C4201D134
S11352406C6808E0094B9C4201D1AC6803E0084B50
S11352509C4200D1EC680C22A35E002BE4D0210018
S11352602800FFF755FF70BD7065000090650000D1
S1135270B065000010B5024900F0B0F810BDC0469A
S11352801D520000002310B50400036043608360D6
S113529081814366C28103614361836119000822ED
S11352A05C30FFF70AFD054B24626362044BA36282
S11352B0044BE362044B236310BDC0466D5C0000E5
S11352C0955C0000CD5C0000F95C000070B56825B9
S11352D04B1E5D430E002900743100F055F9041E85
S11352E008D000212A00016046600C30A0606832BA
S11352F0FFF7E3FC200070BD836913B50400002BA5
S113530028D18364C3640365134B144A1B68826207
S11353100193984201D101238361200000F020F819
S11353206060200000F01CF8A060200000F018F875
S11353300022E06004216068FFF7A4FF0122092134
S1135340A068FFF79FFF02221221E068FFF79AFF8F
S11353500123A36113BDC0466C65000075520000B3
S1135360F8B51D4B06001D68AB69002B02D128005F
S1135370FFF7C2FF4835AC686B68013B05D40C22CB
S1135380A75E002F10D06834F7E72B68002B01D0FC
S11353902D68F0E704213000FFF798FF286000280B
S11353A0F6D10C23336016E0012320005B42E38135
S11353B00233A38167662760A7606760276167611E
S11353C0A7615C3008223900FFF777FC200067638F
S11353D0A763A764E764F8BD6C650000F7B5040033
S11353E00700002601914834002C16D06368A56894
S11353F00093009B013B00930DD4AB89012B08D98A
S11354000E22AB5E013304D029003800019B98477B
S113541006436835EDE72468E6E73000FEBD00008A
S113542070B50E001D000E23C95E90B01400002953
S113543006DA00232B60B3891B060FD540230FE047
S113544001AA00F085FC0028F3DBF023029A1B027A
S11354501340054A9B185A4253412B608023DB00BA
S11354600020236010B070BD00E0FFFFF7B50226F6
S11354708B8905000C00334210D101AB6A46FFF75B
S1135480CFFF00990700280000F07EF800280CD117
S11354900C22A35E9A0523D43343A381230047330C
S11354A023602361012363611AE080220D4BAB6208
S11354B0A38920601343A381009B20616361019B46
S11354C0002B0AD00E23E15E280000F053FC0028D4
S11354D003D00122A3891343A381A3891F43A78176
S11354E0F7BDC0467552000010B5034B01001868A3
S11354F000F04AF810BDC0469000002030B50029E5
S11355003ED004390B68002B00DAC9181D4A136811
S11355101400002B02D14B60116031E08B420DD995
S11355200A688818834203D118685B6882180A6085
S11355304B60216024E08A4203D813005A68002A91
S1135540F9D11D685C198C420BD109686918581887
S11355501960824214D110685268411819605A6067
S11355600EE08C4202D90C23036009E008680C1891
S1135570A24203D114685268201808604A60596036
S113558030BDC046D0030020032370B5CD1C9D431D
S1135590083506000C2D01D20C2505E0002D03DA98
S11355A00C230020336040E0A942F9D81F4B1C684B
S11355B01A002100002913D00B685B1B0DD40B2BA0
S11355C002D90B60CC181EE08C4202D163681360D0
S11355D01AE04B6863600C0016E00C004968E9E7C8
S11355E0134C2368002B03D1300000F02DFB206006
S11355F02900300000F028FB431CD1D00323C41C35
S11356009C43A0420AD12560200007220B30231DB1
S11356109043C31A09D05A42E25006E0211A3000DE
S113562000F012FB431CEED1BAE770BDD00300209A
S1135630CC030020936810B5013B9360002B05DA7E
S11356409469A34208DBCBB20A2B05D01368581C1B
S113565010601970C8B201E0FFF78CFC10BDF8B5FA
S113566006000F001400D518AC4208D021783A0087
S11356703000FFF7DFFF0134431CF5D100E00020C8
S1135680F8BD0000F0B59FB006000F00029205932C
S1135690002804D08369002B01D1FFF72DFE7F4B36
S11356A09F4201D1776808E07D4B9F4201D1B768E2
S11356B003E07C4B9F4200D1F768BB891B070AD5E6
S11356C03B69002B07D0002306AD6B6120336B765A
S11356D01033AB763DE039003000FFF7A3FC00281F
S11356E0F1D001204042D6E0059A111D12680591BF
S11356F0002A00DA7FE00992013423782E2B00D1AE
S11357008DE021780322684800F05AFB002807D076
S1135710654B2A68C01A4023834013432B6001342D
S11357202178631C062261480293297600F048FB25
S1135730002800D19DE05E4B002B00D090E00722B2
S1135740059B07339343083305936B69039A9B18AE
S11357506B61029C2378002B04D1029BE31A04930F
S113576012D003E0252BF8D00134F3E7049B029A0E
S113577039003000FFF773FF431C00D186E06A69EB
S1135780049B944663446B612378002B7ED00122F2
S1135790002352426A6002A95432521801342B6029
S11357A0EB60AB601370AB6521780522414800F0D3
S11357B007FB002808D03F4B2A68C01A0123834006
S11357C013432B600134EFE72B68DA0604D5532228
S11357D0202102A8121811701A0704D553222B2174
S11357E002A81218117022782A2A00D17CE7099B9A
S11357F000200A2105E05242EA60022213432B6092
S11358007AE72278303A092A04D84B4301349B18AA
S11358100120F6E7002800D16FE709936DE763786C
S11358202A2B0AD1059B02341A1D1B680592002BF2
S113583001DA01235B42079363E700230A201A007D
S113584001346B6021783039092904D8424301348A
S113585052180123F6E7002B00D152E7079250E7D4
S113586005AB00933A00144B2900300000E000BF60
S113587007E005AB00933A000F4B2900300000F01D
S11358808BF80390039B013300D05EE7BB895B0672
S113589000D526E70B981FB0F0BDC0467065000028
S11358A090650000B0650000D6650000DA65000070
S11358B000000000D06500005F560000F7B5170037
S11358C001938A680B6900900C00934200DA13007C
S11358D022003B6043321278002A01D001333B603E
S11358E023689B0602D53B6802333B600625236888
S11358F01D401ED0230043331B785A1E9341226857
S113590092061CD53020E1184331087021005A1C3E
S113591045310978A2184332023311700FE0220096
S11359200123193201990098089EB047431C0ED0F8
S11359300135E3683A689B1A9D42F0DBDAE72200FE
S1135940019943320098089DA847431C02D10120C5
S1135950404220E006232068E1683A6803400025BD
S1135960042B03D18D1AEB43DB171D40A368226976
S1135970934201DD9B1AED180027BD420AD0220094
S113598001231A3201990098089EB047431CDED0C7
S11359900137F2E70020FEBDF0B58BB006920A0095
S11359A043320793059004920A7E0C00109B6E2AE2
S11359B000D1ABE011D8632A22D009D8002A00D143
S11359C0B5E0582A00D0C5E045310A70814A4FE05D
S11359D0642A1DD0692A1BD0BCE0732A00D1AAE036
S11359E009D86F2A29D0702A00D0B3E02022096890
S11359F00A43226037E0752A1FD0782A33D0A9E001
S1135A000E001A684236111D196013683370A4E041
S1135A1021681A68080606D4490604D5111D1960C0
S1135A200023D55E02E0111D19601568002D3BDAD4
S1135A302D23049A6D42137036E021681A68080613
S1135A4006D4490604D51568111D1960ADB202E0EB
S1135A50111D196015685F4B227E039308276F2A76
S1135A601DD00A271BE022007821453211705A4AC2
S1135A7019680392081D226818600D68100602D484
S1135A80500600D5ADB2D30702D520231A432260B5
S1135A901027002D03D1202322689A43226023007B
S1135AA0002243331A7002E00A274A4B03936368C7
S1135AB0A360002B09DB0422216891432160002D9F
S1135AC005D1049E002B11D07BE0002D79D0049EDB
S1135AD028003900FEF79AFF039B013E5B5C280017
S1135AE033703900FEF70CFF051EF1D1082F09D1E0
S1135AF02368DB0706D563682269934202DC3023FE
S1135B00013E3370049B9B1B23612BE009681A68D8
S1135B10080607D4490605D5111D19601368A28A21
S1135B201A8004E0111D1960136862691A60002369
S1135B30049E236116E01A68111D1960166800217D
S1135B406268300000F03CF9002801D0801B6060DE
S1135B50636803E026004236327001232361002388
S1135B60049A1370079B09AA00932100069B0598C9
S1135B70FFF7A4FE431C02D10120404227E0236921
S1135B80320006990598079DA847431CF4D0236862
S1135B9000259B070FD4099BE068984217DA180088
S1135BA015E022000123193206990598079EB04793
S1135BB0431CE1D00135E368099A9B1A9D42F0DB4E
S1135BC0E9E72600039B42361B7833708EE70BB05F
S1135BD0F0BDC046E1650000F265000070B5060046
S1135BE00D001400002804D08369002B01D1FFF7B5
S1135BF083FB124B9C4201D1746808E0104B9C4219
S1135C0001D1B46803E00F4B9C4200D1F468A3684F
S1135C10013BA360002B05DAA269934208DBEBB2D7
S1135C200A2B05D02368E8B25A1C22601D7004E0D8
S1135C30220029003000FFF79DF970BD7065000057
S1135C4090650000B0650000002370B5064C0500A7
S1135C5008002360FEF742FC431C03D12368002B99
S1135C6000D02B6070BDC0464804002070B50C0005
S1135C700E25495F00F0B0F8002803DB636D1B18A4
S1135C80636503E0A289024B1340A38170BDC04643
S1135C90FFEFFFFFF8B51F008B8905000C0016000D
S1135CA0DB0505D50E23C95E0022022300F074F83B
S1135CB0A289054B28001340A38132000E23E15E24
S1135CC03B0000F01FF8F8BDFFEFFFFF70B50C00BC
S1135CD00E25495F00F060F8A389421C03D1054AF0
S1135CE01340A38104E0802252011343A381606521
