S016000053414D4432315F53445F426F6F742E737265639D
S1130000602000206D0500006905000069050000FE
S113001000000000000000000000000000000000DC
S1130020000000000000000000000000690500005E
S113003000000000000000006905000069050000E0
S1130040690500006905000069050000150100004C
S113005069050000690500006905000069050000E4
S113006069050000510100006101000071010000F8
S11300708101000091010000A10100006905000058
S113008069050000690500006905000069050000B4
S11300906905000000000000000000006905000080
S11300A06905000069050000690500006905000094
S11300B00000000010B5064C2378002B07D1054B37
S11300C0002B02D0044800E000BF0123237010BDC0
S11300D0040000200000000004070000084B10B5D5
S11300E0002B03D00749084800E000BF0748036815
S11300F0002B00D110BD064B002BFBD09847F9E72D
S113010000000000080000200407000004070000AD
S11301100000000010B50D4B1A681468538A118A48
S11301201940237AE0790340D80906D08B0701D51A
S1130130D36898478023237207E0DB0705D5CB07F4
S113014001D5936898470123237210BD58000020FD
S113015010B5024B1B680020984710BD20000020FA
S113016010B5024B5B680120984710BD20000020A9
S113017010B5024B9B680220984710BD2000002058
S113018010B5024BDB680320984710BD2000002007
S113019010B5024B1B690420984710BD20000020B5
S11301A010B5024B5B690520984710BD2000002064
S11301B07047C0460C4B1B68002B10D1EFF3108323
S11301C0002B09D172B6BFF35F8F0022074B1A7060
S11301D00132074B1A7002E00022054B1A70024AE2
S11301E013680133136070473800002000000020BA
S11301F03C000020084B1A68013A1A601B68002B67
S113020009D1064B1B78002B05D00122044B1A7030
S1130210BFF35F8F62B67047380000203C000020B7
S11302200000002070B50C4C236A01788578427870
S11302300120024092014026B343134302002A40A6
S1130240D2017F308343134303220A40120203493D
S11302500B401343236270BD00080040FFFCFFFF06
S1130260082803D88000254B1B589F46172044E0DC
S1130270234A116A02230B43136200203DE0204A03
S1130280916902230B439361002036E01C4A118AD2
S113029002230B43138200202FE0194A918A022380
S11302A00B439382002028E016490B680222134373
S11302B00B60134B9A8419000E32CB681A42FCD09F
S11302C0104A91680E4BD96252689A6200229A844D
S11302D019001032CB681A42FCD00A4B1B689BB23F
S11302E0074A9384002008E005494422885C0223DD
S11302F003438B54002000E000207047C006000038
S1130300000800404000002030B585B0C222D20071
S11303101A4B9A601A4A53681E218B435360012377
S11303206A4613700024174DE0B26946A8470134A9
S1130330252CF9D103A8002444700125857004708C
S1130340114B98470620114B9847114B9847114B76
S11303501C725C729C72DC7201956B465C700623A5
S11303606A46137014725472694600200A4B984707
S113037000200A4B984705B030BDC0460008004035
S1130380004000411D05000025020000610200003C
S1130390A103000000040040C50300007D04000028
S11303A0064A916908230B4393610122044B1A7096
S11303B019000B781342FCD17047C046000400407A
S11303C0000C004070B5060005000C7824020443BC
S11303D04B78002B02D08023DB021C434B7A002B8A
S11303E002D080231B031C434868012818D9431EEC
S11303F0184210D1022806D90223002201325B00E0
S11304009842FBD800E000221202324315008023F8
S11304105B031C4304E00502354380239B021C4319
S11304200B7A002B02D080239B031C430F4A537882
S11304305BB2002BFBDB0E4B98470E4B1E700B4A36
S113044053785BB2002BFBDB084B9D601A0053789A
S11304505BB2002BFBDB054A516880235B020B4037
S11304601C435460044B984770BDC046000C0040C8
S1130470B5010000080C0040F501000010B50400AF
S11304800B4A53785BB2002BFBDB0A4B98470A4BB1
S11304901C70074A53785BB2002BFBDB044A536899
S11304A0802149020B435360044B984710BDC0465A
S11304B0000C0040B5010000040C0040F5010000F0
S11304C010B504000F4B98470F4B1C700F4B5A8804
S11304D01205100F59880E4A0A405A8059880D4A4D
S11304E00A405A8019008022D2014B881342FCD161
S11304F006494C880202064B234013434B80064BAB
S1130500984710BDB5010000020C0040000C0040EB
S1130510FFF0FFFFFFBFFFFFF501000010B50C78EF
S113052024020443024B9847A4B2024B5C8010BDE2
S1130530C1040000000C00407047C04610B5054BD4
S11305409847054B9847054B9847054B9847054BEB
S1130550984710BD09030000B101000039050000EF
S11305603905000039050000FEE7C04670B52E4B82
S11305702E4A9A4203D02E4B2B4A9A4204D32D4B37
S11305802D4A9A4210D31EE02C4A294B03339B1A5E
S11305909B0801339B000022234824498C58845033
S11305A004329A42FAD1EAE7254A224B03339B1AD2
S11305B09B0801339B0000221F480021141821606E
S11305C004329A42FAD11F4AFF211F4B8B43936096
S11305D0FD3990235B001D4AD1501D48C378032484
S11305E0A34302221343C370C3780C26B3430821E8
S11305F00B43C370174B987B3025A843050020207C
S113060028439873987BB04301439973997BA14322
S11306100A439A73104A516880230B4353600F4B6B
S113062098470F4B9847FEE700000020040700009E
S1130630040000205C0000200400002004000020CE
S11306400800002000ED00E0000000000070004100
S11306500050004100480041004000417506000080
S11306606506000010B5024B9847012010BDC04636
S11306703D0500000E4B70B500251E000D4CE41A1C
S1130680A410A54204D0AB00F35898470135F8E70D
S113069000F028F8084B00251E00084CE41AA410AA
S11306A0A54204D0AB00F35898470135F8E770BD74
S11306B0F0060000F0060000F0060000F40600005A
S11306C08C0200006C0200006C020000F8020000C2
S11306D07E0200009A02000070020000A8020000DE
S11306E0E8020000F8B5C046F8BC08BC9E46704756
S11306F0DD000000F8B5C046F8BC08BC9E46704753
S1070700B50000003C
S107070401000000EC
S903056D8A
